{
  "contractName": "ProductPayment",
  "abi": [
    {
      "anonymous": false,
      "inputs": [
        {
          "indexed": true,
          "internalType": "address",
          "name": "buyer",
          "type": "address"
        },
        {
          "indexed": false,
          "internalType": "string",
          "name": "productId",
          "type": "string"
        },
        {
          "indexed": false,
          "internalType": "uint256",
          "name": "amount",
          "type": "uint256"
        },
        {
          "indexed": false,
          "internalType": "uint256",
          "name": "timestamp",
          "type": "uint256"
        }
      ],
      "name": "PaymentReceived",
      "type": "event"
    },
    {
      "inputs": [
        {
          "internalType": "string",
          "name": "",
          "type": "string"
        }
      ],
      "name": "payments",
      "outputs": [
        {
          "internalType": "address",
          "name": "buyer",
          "type": "address"
        },
        {
          "internalType": "uint256",
          "name": "amount",
          "type": "uint256"
        },
        {
          "internalType": "string",
          "name": "productId",
          "type": "string"
        },
        {
          "internalType": "uint256",
          "name": "timestamp",
          "type": "uint256"
        },
        {
          "internalType": "bool",
          "name": "exists",
          "type": "bool"
        }
      ],
      "stateMutability": "view",
      "type": "function",
      "constant": true
    },
    {
      "inputs": [
        {
          "internalType": "address",
          "name": "",
          "type": "address"
        },
        {
          "internalType": "uint256",
          "name": "",
          "type": "uint256"
        }
      ],
      "name": "userPayments",
      "outputs": [
        {
          "internalType": "string",
          "name": "",
          "type": "string"
        }
      ],
      "stateMutability": "view",
      "type": "function",
      "constant": true
    },
    {
      "inputs": [
        {
          "internalType": "string",
          "name": "productId",
          "type": "string"
        }
      ],
      "name": "payForProduct",
      "outputs": [],
      "stateMutability": "payable",
      "type": "function",
      "payable": true
    },
    {
      "inputs": [
        {
          "internalType": "address",
          "name": "user",
          "type": "address"
        },
        {
          "internalType": "string",
          "name": "productId",
          "type": "string"
        }
      ],
      "name": "hasPaid",
      "outputs": [
        {
          "internalType": "bool",
          "name": "",
          "type": "bool"
        }
      ],
      "stateMutability": "view",
      "type": "function",
      "constant": true
    },
    {
      "inputs": [
        {
          "internalType": "string",
          "name": "productId",
          "type": "string"
        }
      ],
      "name": "getPayment",
      "outputs": [
        {
          "internalType": "address",
          "name": "",
          "type": "address"
        },
        {
          "internalType": "uint256",
          "name": "",
          "type": "uint256"
        },
        {
          "internalType": "string",
          "name": "",
          "type": "string"
        },
        {
          "internalType": "uint256",
          "name": "",
          "type": "uint256"
        },
        {
          "internalType": "bool",
          "name": "",
          "type": "bool"
        }
      ],
      "stateMutability": "view",
      "type": "function",
      "constant": true
    }
  ],
  "bytecode": "0x608060405234801561001057600080fd5b50611079806100206000396000f3fe60806040526004361061004a5760003560e01c8063140fcbb11461004f578063802b9ebd1461008c5780638cfeab35146100a8578063c69207a3146100e5578063f946871314610126575b600080fd5b34801561005b57600080fd5b506100766004803603810190610071919061096c565b610167565b60405161008391906109e3565b60405180910390f35b6100a660048036038101906100a191906109fe565b610217565b005b3480156100b457600080fd5b506100cf60048036038101906100ca9190610a7d565b610482565b6040516100dc9190610b3c565b60405180910390f35b3480156100f157600080fd5b5061010c600480360381019061010791906109fe565b61053b565b60405161011d959493929190610b7c565b60405180910390f35b34801561013257600080fd5b5061014d600480360381019061014891906109fe565b6106b3565b60405161015e959493929190610b7c565b60405180910390f35b600080826040516101789190610c12565b908152602001604051809103902060040160009054906101000a900460ff16801561020f57508273ffffffffffffffffffffffffffffffffffffffff166000836040516101c59190610c12565b908152602001604051809103902060000160009054906101000a900473ffffffffffffffffffffffffffffffffffffffff1673ffffffffffffffffffffffffffffffffffffffff16145b905092915050565b6000341161025a576040517f08c379a000000000000000000000000000000000000000000000000000000000815260040161025190610c9b565b60405180910390fd5b60008160405161026a9190610c12565b908152602001604051809103902060040160009054906101000a900460ff16156102c9576040517f08c379a00000000000000000000000000000000000000000000000000000000081526004016102c090610d07565b60405180910390fd5b6040518060a001604052803373ffffffffffffffffffffffffffffffffffffffff168152602001348152602001828152602001428152602001600115158152506000826040516103199190610c12565b908152602001604051809103902060008201518160000160006101000a81548173ffffffffffffffffffffffffffffffffffffffff021916908373ffffffffffffffffffffffffffffffffffffffff16021790555060208201518160010155604082015181600201908161038d9190610f33565b506060820151816003015560808201518160040160006101000a81548160ff021916908315150217905550905050600160003373ffffffffffffffffffffffffffffffffffffffff1673ffffffffffffffffffffffffffffffffffffffff1681526020019081526020016000208190806001815401808255809150506001900390600052602060002001600090919091909150908161042c9190610f33565b503373ffffffffffffffffffffffffffffffffffffffff167f8fa6425f4665e251c6dd1d6b6e793823b8b07b4efe70381ec1a158785640393f82344260405161047793929190611005565b60405180910390a250565b6001602052816000526040600020818154811061049e57600080fd5b906000526020600020016000915091505080546104ba90610d56565b80601f01602080910402602001604051908101604052809291908181526020018280546104e690610d56565b80156105335780601f1061050857610100808354040283529160200191610533565b820191906000526020600020905b81548152906001019060200180831161051657829003601f168201915b505050505081565b6000806060600080600080876040516105549190610c12565b90815260200160405180910390206040518060a00160405290816000820160009054906101000a900473ffffffffffffffffffffffffffffffffffffffff1673ffffffffffffffffffffffffffffffffffffffff1673ffffffffffffffffffffffffffffffffffffffff168152602001600182015481526020016002820180546105dd90610d56565b80601f016020809104026020016040519081016040528092919081815260200182805461060990610d56565b80156106565780601f1061062b57610100808354040283529160200191610656565b820191906000526020600020905b81548152906001019060200180831161063957829003601f168201915b50505050508152602001600382015481526020016004820160009054906101000a900460ff161515151581525050905080600001518160200151826040015183606001518460800151955095509550955095505091939590929450565b6000818051602081018201805184825260208301602085012081835280955050505050506000915090508060000160009054906101000a900473ffffffffffffffffffffffffffffffffffffffff169080600101549080600201805461071890610d56565b80601f016020809104026020016040519081016040528092919081815260200182805461074490610d56565b80156107915780601f1061076657610100808354040283529160200191610791565b820191906000526020600020905b81548152906001019060200180831161077457829003601f168201915b5050505050908060030154908060040160009054906101000a900460ff16905085565b6000604051905090565b600080fd5b600080fd5b600073ffffffffffffffffffffffffffffffffffffffff82169050919050565b60006107f3826107c8565b9050919050565b610803816107e8565b811461080e57600080fd5b50565b600081359050610820816107fa565b92915050565b600080fd5b600080fd5b6000601f19601f8301169050919050565b7f4e487b7100000000000000000000000000000000000000000000000000000000600052604160045260246000fd5b61087982610830565b810181811067ffffffffffffffff8211171561089857610897610841565b5b80604052505050565b60006108ab6107b4565b90506108b78282610870565b919050565b600067ffffffffffffffff8211156108d7576108d6610841565b5b6108e082610830565b9050602081019050919050565b82818337600083830152505050565b600061090f61090a846108bc565b6108a1565b90508281526020810184848401111561092b5761092a61082b565b5b6109368482856108ed565b509392505050565b600082601f83011261095357610952610826565b5b81356109638482602086016108fc565b91505092915050565b60008060408385031215610983576109826107be565b5b600061099185828601610811565b925050602083013567ffffffffffffffff8111156109b2576109b16107c3565b5b6109be8582860161093e565b9150509250929050565b60008115159050919050565b6109dd816109c8565b82525050565b60006020820190506109f860008301846109d4565b92915050565b600060208284031215610a1457610a136107be565b5b600082013567ffffffffffffffff811115610a3257610a316107c3565b5b610a3e8482850161093e565b91505092915050565b6000819050919050565b610a5a81610a47565b8114610a6557600080fd5b50565b600081359050610a7781610a51565b92915050565b60008060408385031215610a9457610a936107be565b5b6000610aa285828601610811565b9250506020610ab385828601610a68565b9150509250929050565b600081519050919050565b600082825260208201905092915050565b60005b83811015610af7578082015181840152602081019050610adc565b60008484015250505050565b6000610b0e82610abd565b610b188185610ac8565b9350610b28818560208601610ad9565b610b3181610830565b840191505092915050565b60006020820190508181036000830152610b568184610b03565b905092915050565b610b67816107e8565b82525050565b610b7681610a47565b82525050565b600060a082019050610b916000830188610b5e565b610b9e6020830187610b6d565b8181036040830152610bb08186610b03565b9050610bbf6060830185610b6d565b610bcc60808301846109d4565b9695505050505050565b600081905092915050565b6000610bec82610abd565b610bf68185610bd6565b9350610c06818560208601610ad9565b80840191505092915050565b6000610c1e8284610be1565b915081905092915050565b7f5061796d656e7420616d6f756e74206d7573742062652067726561746572207460008201527f68616e2030000000000000000000000000000000000000000000000000000000602082015250565b6000610c85602583610ac8565b9150610c9082610c29565b604082019050919050565b60006020820190508181036000830152610cb481610c78565b9050919050565b7f50726f6475637420616c7265616479207061696420666f720000000000000000600082015250565b6000610cf1601883610ac8565b9150610cfc82610cbb565b602082019050919050565b60006020820190508181036000830152610d2081610ce4565b9050919050565b7f4e487b7100000000000000000000000000000000000000000000000000000000600052602260045260246000fd5b60006002820490506001821680610d6e57607f821691505b602082108103610d8157610d80610d27565b5b50919050565b60008190508160005260206000209050919050565b60006020601f8301049050919050565b600082821b905092915050565b600060088302610de97fffffffffffffffffffffffffffffffffffffffffffffffffffffffffffffffff82610dac565b610df38683610dac565b95508019841693508086168417925050509392505050565b6000819050919050565b6000610e30610e2b610e2684610a47565b610e0b565b610a47565b9050919050565b6000819050919050565b610e4a83610e15565b610e5e610e5682610e37565b848454610db9565b825550505050565b600090565b610e73610e66565b610e7e818484610e41565b505050565b5b81811015610ea257610e97600082610e6b565b600181019050610e84565b5050565b601f821115610ee757610eb881610d87565b610ec184610d9c565b81016020851015610ed0578190505b610ee4610edc85610d9c565b830182610e83565b50505b505050565b600082821c905092915050565b6000610f0a60001984600802610eec565b1980831691505092915050565b6000610f238383610ef9565b9150826002028217905092915050565b610f3c82610abd565b67ffffffffffffffff811115610f5557610f54610841565b5b610f5f8254610d56565b610f6a828285610ea6565b600060209050601f831160018114610f9d5760008415610f8b578287015190505b610f958582610f17565b865550610ffd565b601f198416610fab86610d87565b60005b82811015610fd357848901518255600182019150602085019450602081019050610fae565b86831015610ff05784890151610fec601f891682610ef9565b8355505b6001600288020188555050505b505050505050565b6000606082019050818103600083015261101f8186610b03565b905061102e6020830185610b6d565b61103b6040830184610b6d565b94935050505056fea2646970667358221220ab92ebcc1247f5455962a176078f5991008ea4cc9177335a17c11bf89bd3a8f564736f6c63430008110033",
  "immutableReferences": {},
  "source": "// SPDX-License-Identifier: MIT\npragma solidity ^0.8.0;\n\ncontract ProductPayment {\n    struct Payment {\n        address buyer;\n        uint256 amount;\n        string productId;\n        uint256 timestamp;\n        bool exists;\n    }\n    \n    mapping(string => Payment) public payments;\n    mapping(address => string[]) public userPayments;\n    \n    event PaymentReceived(\n        address indexed buyer,\n        string productId,\n        uint256 amount,\n        uint256 timestamp\n    );\n    \n    function payForProduct(string memory productId) external payable {\n        require(msg.value > 0, \"Payment amount must be greater than 0\");\n        require(!payments[productId].exists, \"Product already paid for\");\n        \n        payments[productId] = Payment({\n            buyer: msg.sender,\n            amount: msg.value,\n            productId: productId,\n            timestamp: block.timestamp,\n            exists: true\n        });\n        userPayments[msg.sender].push(productId);\n        emit PaymentReceived(msg.sender, productId, msg.value, block.timestamp);\n    }\n    \n    function hasPaid(address user, string memory productId) public view returns (bool) {\n        return payments[productId].exists && payments[productId].buyer == user;\n    }\n    \n    function getPayment(string memory productId) public view returns (address, uint256, string memory, uint256, bool) {\n        Payment memory p = payments[productId];\n        return (p.buyer, p.amount, p.productId, p.timestamp, p.exists);\n    }\n} ",
  "sourcePath": "/Users/apple/Desktop/sp22-033 2/review/contracts/ProductPayment.sol",
  "compiler": {
    "name": "solc",
    "version": "0.8.17+commit.8df45f5f.Emscripten.clang"
  },
  "schemaVersion": "3.4.10",
  "updatedAt": "2025-07-05T10:13:05.898Z",
  "networkType": "ethereum",
  "devdoc": {
    "kind": "dev",
    "methods": {},
    "version": 1
  },
  "userdoc": {
    "kind": "user",
    "methods": {},
    "version": 1
  }
}